{"contracts/DiceHighLow.sol":{"DiceHighLow":{"abi":[{"inputs":[{"internalType":"uint256","name":"_min","type":"uint256"},{"internalType":"uint256","name":"_max","type":"uint256"},{"internalType":"uint256","name":"_edgeBps","type":"uint256"}],"stateMutability":"nonpayable","type":"constructor"},{"inputs":[],"name":"InsufficientTreasury","type":"error"},{"inputs":[],"name":"InvalidBet","type":"error"},{"inputs":[],"name":"NotOwner","type":"error"},{"anonymous":false,"inputs":[{"indexed":false,"internalType":"uint256","name":"bps","type":"uint256"}],"name":"EdgeUpdated","type":"event"},{"anonymous":false,"inputs":[{"indexed":false,"internalType":"uint256","name":"minBet","type":"uint256"},{"indexed":false,"internalType":"uint256","name":"maxBet","type":"uint256"}],"name":"LimitsUpdated","type":"event"},{"anonymous":false,"inputs":[{"indexed":true,"internalType":"address","name":"player","type":"address"},{"indexed":false,"internalType":"uint256","name":"bet","type":"uint256"},{"indexed":false,"internalType":"bool","name":"pickHigh","type":"bool"},{"indexed":false,"internalType":"uint8","name":"d1","type":"uint8"},{"indexed":false,"internalType":"uint8","name":"d2","type":"uint8"},{"indexed":false,"internalType":"uint8","name":"total","type":"uint8"},{"indexed":false,"internalType":"bool","name":"win","type":"bool"},{"indexed":false,"internalType":"uint256","name":"payout","type":"uint256"}],"name":"Roll","type":"event"},{"anonymous":false,"inputs":[{"indexed":false,"internalType":"uint256","name":"amount","type":"uint256"}],"name":"TreasuryDeposit","type":"event"},{"anonymous":false,"inputs":[{"indexed":false,"internalType":"uint256","name":"amount","type":"uint256"}],"name":"TreasuryWithdraw","type":"event"},{"inputs":[],"name":"depositTreasury","outputs":[],"stateMutability":"payable","type":"function"},{"inputs":[],"name":"houseEdgeBps","outputs":[{"internalType":"uint256","name":"","type":"uint256"}],"stateMutability":"view","type":"function"},{"inputs":[],"name":"maxBet","outputs":[{"internalType":"uint256","name":"","type":"uint256"}],"stateMutability":"view","type":"function"},{"inputs":[],"name":"minBet","outputs":[{"internalType":"uint256","name":"","type":"uint256"}],"stateMutability":"view","type":"function"},{"inputs":[],"name":"owner","outputs":[{"internalType":"address","name":"","type":"address"}],"stateMutability":"view","type":"function"},{"inputs":[{"internalType":"bool","name":"pickHigh","type":"bool"}],"name":"play","outputs":[],"stateMutability":"payable","type":"function"},{"inputs":[{"internalType":"uint256","name":"_edgeBps","type":"uint256"}],"name":"setEdge","outputs":[],"stateMutability":"nonpayable","type":"function"},{"inputs":[{"internalType":"uint256","name":"_minBet","type":"uint256"},{"internalType":"uint256","name":"_maxBet","type":"uint256"}],"name":"setLimits","outputs":[],"stateMutability":"nonpayable","type":"function"},{"inputs":[{"internalType":"uint256","name":"amount","type":"uint256"}],"name":"withdrawTreasury","outputs":[],"stateMutability":"nonpayable","type":"function"},{"stateMutability":"payable","type":"receive"}],"evm":{"bytecode":{"linkReferences":{},"object":"60806040523480156200001157600080fd5b50604051620011c4380380620011c48339818101604052810190620000379190620000db565b828282336000806101000a81548173ffffffffffffffffffffffffffffffffffffffff021916908373ffffffffffffffffffffffffffffffffffffffff16021790555082600181905550816002819055508060038190555050505050505062000137565b600080fd5b6000819050919050565b620000b581620000a0565b8114620000c157600080fd5b50565b600081519050620000d581620000aa565b92915050565b600080600060608486031215620000f757620000f66200009b565b5b60006200010786828701620000c4565b93505060206200011a86828701620000c4565b92505060406200012d86828701620000c4565b9150509250925092565b61107d80620001476000396000f3fe6080604052600436106100895760003560e01c80637e916d1b116100595780637e916d1b1461013d5780638da5cb5b146101475780639619367d14610172578063c23c87d51461019d578063c4590d3f146101b957610090565b80629984211461009557806311f1fc99146100c05780631eac102e146100e95780632e5b21681461011257610090565b3661009057005b600080fd5b3480156100a157600080fd5b506100aa6101e2565b6040516100b79190610982565b60405180910390f35b3480156100cc57600080fd5b506100e760048036038101906100e291906109ce565b6101e8565b005b3480156100f557600080fd5b50610110600480360381019061010b91906109ce565b6103af565b005b34801561011e57600080fd5b506101276104ba565b6040516101349190610982565b60405180910390f35b6101456104c0565b005b34801561015357600080fd5b5061015c61057e565b6040516101699190610a3c565b60405180910390f35b34801561017e57600080fd5b506101876105a2565b6040516101949190610982565b60405180910390f35b6101b760048036038101906101b29190610a8f565b6105a8565b005b3480156101c557600080fd5b506101e060048036038101906101db9190610abc565b6107f1565b005b60035481565b60008054906101000a900473ffffffffffffffffffffffffffffffffffffffff1673ffffffffffffffffffffffffffffffffffffffff163373ffffffffffffffffffffffffffffffffffffffff161461026d576040517f30cd747100000000000000000000000000000000000000000000000000000000815260040160405180910390fd5b804710156102a7576040517f10162d2d00000000000000000000000000000000000000000000000000000000815260040160405180910390fd5b60008060009054906101000a900473ffffffffffffffffffffffffffffffffffffffff1673ffffffffffffffffffffffffffffffffffffffff16826040516102ee90610b2d565b60006040518083038185875af1925050503d806000811461032b576040519150601f19603f3d011682016040523d82523d6000602084013e610330565b606091505b5050905080610374576040517f08c379a000000000000000000000000000000000000000000000000000000000815260040161036b90610b9f565b60405180910390fd5b7ff1b96db22d7f3eb7ef19d9ddbc4d63be139f5d014216d4e42107e10cfd4ff16c826040516103a39190610982565b60405180910390a15050565b60008054906101000a900473ffffffffffffffffffffffffffffffffffffffff1673ffffffffffffffffffffffffffffffffffffffff163373ffffffffffffffffffffffffffffffffffffffff1614610434576040517f30cd747100000000000000000000000000000000000000000000000000000000815260040160405180910390fd5b6103e8811115610479576040517f08c379a000000000000000000000000000000000000000000000000000000000815260040161047090610c0b565b60405180910390fd5b806003819055507f0aaa88a245626b4c41c5ba2068595112856bfd421e164b6586cbf9408d7167f3816040516104af9190610982565b60405180910390a150565b60025481565b60008054906101000a900473ffffffffffffffffffffffffffffffffffffffff1673ffffffffffffffffffffffffffffffffffffffff163373ffffffffffffffffffffffffffffffffffffffff1614610545576040517f30cd747100000000000000000000000000000000000000000000000000000000815260040160405180910390fd5b7f90388e3e271a8f007dd351d51ccac1674db355c1ce23fe0005d0721fc8e9b2c6346040516105749190610982565b60405180910390a1565b60008054906101000a900473ffffffffffffffffffffffffffffffffffffffff1681565b60015481565b60003490506001548110806105be575060025481115b156105f5576040517faa82224900000000000000000000000000000000000000000000000000000000815260040160405180910390fd5b600060016106036006610904565b61060d9190610c5a565b90506000600161061d6006610904565b6106279190610c5a565b9050600081836106379190610c9b565b9050600060078260ff160361064f576000905061066e565b85156106635760078260ff1611905061066d565b60078260ff161090505b5b6000811561078e576000600354614e206106889190610cd0565b905061271081886106999190610d04565b6106a39190610d75565b9150814710156106df576040517f10162d2d00000000000000000000000000000000000000000000000000000000815260040160405180910390fd5b60003373ffffffffffffffffffffffffffffffffffffffff168360405161070590610b2d565b60006040518083038185875af1925050503d8060008114610742576040519150601f19603f3d011682016040523d82523d6000602084013e610747565b606091505b505090508061078b576040517f08c379a000000000000000000000000000000000000000000000000000000000815260040161078290610df2565b60405180910390fd5b50505b3373ffffffffffffffffffffffffffffffffffffffff167ff27cbbd9d4f56eac12a418ec8fc77964021df0f6ec18e05452cdca8a3d023f62878988888888886040516107e09796959493929190610e30565b60405180910390a250505050505050565b60008054906101000a900473ffffffffffffffffffffffffffffffffffffffff1673ffffffffffffffffffffffffffffffffffffffff163373ffffffffffffffffffffffffffffffffffffffff1614610876576040517f30cd747100000000000000000000000000000000000000000000000000000000815260040160405180910390fd5b808211156108b9576040517f08c379a00000000000000000000000000000000000000000000000000000000081526004016108b090610eeb565b60405180910390fd5b81600181905550806002819055507f4d4981437d0211f9e6843eb024d9ada1fa3a99514d4343d4aece106dd11524bb82826040516108f8929190610f0b565b60405180910390a15050565b6000600460008154809291906001019190505550816001436109269190610cd0565b40333060045460405160200161093f9493929190610fc8565b6040516020818303038152906040528051906020012060001c6109629190611016565b9050919050565b6000819050919050565b61097c81610969565b82525050565b60006020820190506109976000830184610973565b92915050565b600080fd5b6109ab81610969565b81146109b657600080fd5b50565b6000813590506109c8816109a2565b92915050565b6000602082840312156109e4576109e361099d565b5b60006109f2848285016109b9565b91505092915050565b600073ffffffffffffffffffffffffffffffffffffffff82169050919050565b6000610a26826109fb565b9050919050565b610a3681610a1b565b82525050565b6000602082019050610a516000830184610a2d565b92915050565b60008115159050919050565b610a6c81610a57565b8114610a7757600080fd5b50565b600081359050610a8981610a63565b92915050565b600060208284031215610aa557610aa461099d565b5b6000610ab384828501610a7a565b91505092915050565b60008060408385031215610ad357610ad261099d565b5b6000610ae1858286016109b9565b9250506020610af2858286016109b9565b9150509250929050565b600081905092915050565b50565b6000610b17600083610afc565b9150610b2282610b07565b600082019050919050565b6000610b3882610b0a565b9150819050919050565b600082825260208201905092915050565b7f7769746864726177206661696c65640000000000000000000000000000000000600082015250565b6000610b89600f83610b42565b9150610b9482610b53565b602082019050919050565b60006020820190508181036000830152610bb881610b7c565b9050919050565b7f6564676520746f6f206869676800000000000000000000000000000000000000600082015250565b6000610bf5600d83610b42565b9150610c0082610bbf565b602082019050919050565b60006020820190508181036000830152610c2481610be8565b9050919050565b7f4e487b7100000000000000000000000000000000000000000000000000000000600052601160045260246000fd5b6000610c6582610969565b9150610c7083610969565b9250828201905080821115610c8857610c87610c2b565b5b92915050565b600060ff82169050919050565b6000610ca682610c8e565b9150610cb183610c8e565b9250828201905060ff811115610cca57610cc9610c2b565b5b92915050565b6000610cdb82610969565b9150610ce683610969565b9250828203905081811115610cfe57610cfd610c2b565b5b92915050565b6000610d0f82610969565b9150610d1a83610969565b9250828202610d2881610969565b91508282048414831517610d3f57610d3e610c2b565b5b5092915050565b7f4e487b7100000000000000000000000000000000000000000000000000000000600052601260045260246000fd5b6000610d8082610969565b9150610d8b83610969565b925082610d9b57610d9a610d46565b5b828204905092915050565b7f7061796f7574206661696c656400000000000000000000000000000000000000600082015250565b6000610ddc600d83610b42565b9150610de782610da6565b602082019050919050565b60006020820190508181036000830152610e0b81610dcf565b9050919050565b610e1b81610a57565b82525050565b610e2a81610c8e565b82525050565b600060e082019050610e45600083018a610973565b610e526020830189610e12565b610e5f6040830188610e21565b610e6c6060830187610e21565b610e796080830186610e21565b610e8660a0830185610e12565b610e9360c0830184610973565b98975050505050505050565b7f6d696e3e6d617800000000000000000000000000000000000000000000000000600082015250565b6000610ed5600783610b42565b9150610ee082610e9f565b602082019050919050565b60006020820190508181036000830152610f0481610ec8565b9050919050565b6000604082019050610f206000830185610973565b610f2d6020830184610973565b9392505050565b6000819050919050565b6000819050919050565b610f59610f5482610f34565b610f3e565b82525050565b60008160601b9050919050565b6000610f7782610f5f565b9050919050565b6000610f8982610f6c565b9050919050565b610fa1610f9c82610a1b565b610f7e565b82525050565b6000819050919050565b610fc2610fbd82610969565b610fa7565b82525050565b6000610fd48287610f48565b602082019150610fe48286610f90565b601482019150610ff48285610f90565b6014820191506110048284610fb1565b60208201915081905095945050505050565b600061102182610969565b915061102c83610969565b92508261103c5761103b610d46565b5b82820690509291505056fea2646970667358221220d511555ccf2c59479dd7b6e9e024f415bfdde0525e2ae5509b2e9b5aae8ca78864736f6c63430008180033","opcodes":"PUSH1 0x80 PUSH1 0x40 MSTORE CALLVALUE DUP1 ISZERO PUSH3 0x11 JUMPI PUSH1 0x0 DUP1 REVERT JUMPDEST POP PUSH1 0x40 MLOAD PUSH3 0x11C4 CODESIZE SUB DUP1 PUSH3 0x11C4 DUP4 CODECOPY DUP2 DUP2 ADD PUSH1 0x40 MSTORE DUP2 ADD SWAP1 PUSH3 0x37 SWAP2 SWAP1 PUSH3 0xDB JUMP JUMPDEST DUP3 DUP3 DUP3 CALLER PUSH1 0x0 DUP1 PUSH2 0x100 EXP DUP2 SLOAD DUP2 PUSH20 0xFFFFFFFFFFFFFFFFFFFFFFFFFFFFFFFFFFFFFFFF MUL NOT AND SWAP1 DUP4 PUSH20 0xFFFFFFFFFFFFFFFFFFFFFFFFFFFFFFFFFFFFFFFF AND MUL OR SWAP1 SSTORE POP DUP3 PUSH1 0x1 DUP2 SWAP1 SSTORE POP DUP2 PUSH1 0x2 DUP2 SWAP1 SSTORE POP DUP1 PUSH1 0x3 DUP2 SWAP1 SSTORE POP POP POP POP POP POP POP PUSH3 0x137 JUMP JUMPDEST PUSH1 0x0 DUP1 REVERT JUMPDEST PUSH1 0x0 DUP2 SWAP1 POP SWAP2 SWAP1 POP JUMP JUMPDEST PUSH3 0xB5 DUP2 PUSH3 0xA0 JUMP JUMPDEST DUP2 EQ PUSH3 0xC1 JUMPI PUSH1 0x0 DUP1 REVERT JUMPDEST POP JUMP JUMPDEST PUSH1 0x0 DUP2 MLOAD SWAP1 POP PUSH3 0xD5 DUP2 PUSH3 0xAA JUMP JUMPDEST SWAP3 SWAP2 POP POP JUMP JUMPDEST PUSH1 0x0 DUP1 PUSH1 0x0 PUSH1 0x60 DUP5 DUP7 SUB SLT ISZERO PUSH3 0xF7 JUMPI PUSH3 0xF6 PUSH3 0x9B JUMP JUMPDEST JUMPDEST PUSH1 0x0 PUSH3 0x107 DUP7 DUP3 DUP8 ADD PUSH3 0xC4 JUMP JUMPDEST SWAP4 POP POP PUSH1 0x20 PUSH3 0x11A DUP7 DUP3 DUP8 ADD PUSH3 0xC4 JUMP JUMPDEST SWAP3 POP POP PUSH1 0x40 PUSH3 0x12D DUP7 DUP3 DUP8 ADD PUSH3 0xC4 JUMP JUMPDEST SWAP2 POP POP SWAP3 POP SWAP3 POP SWAP3 JUMP JUMPDEST PUSH2 0x107D DUP1 PUSH3 0x147 PUSH1 0x0 CODECOPY PUSH1 0x0 RETURN INVALID PUSH1 0x80 PUSH1 0x40 MSTORE PUSH1 0x4 CALLDATASIZE LT PUSH2 0x89 JUMPI PUSH1 0x0 CALLDATALOAD PUSH1 0xE0 SHR DUP1 PUSH4 0x7E916D1B GT PUSH2 0x59 JUMPI DUP1 PUSH4 0x7E916D1B EQ PUSH2 0x13D JUMPI DUP1 PUSH4 0x8DA5CB5B EQ PUSH2 0x147 JUMPI DUP1 PUSH4 0x9619367D EQ PUSH2 0x172 JUMPI DUP1 PUSH4 0xC23C87D5 EQ PUSH2 0x19D JUMPI DUP1 PUSH4 0xC4590D3F EQ PUSH2 0x1B9 JUMPI PUSH2 0x90 JUMP JUMPDEST DUP1 PUSH3 0x998421 EQ PUSH2 0x95 JUMPI DUP1 PUSH4 0x11F1FC99 EQ PUSH2 0xC0 JUMPI DUP1 PUSH4 0x1EAC102E EQ PUSH2 0xE9 JUMPI DUP1 PUSH4 0x2E5B2168 EQ PUSH2 0x112 JUMPI PUSH2 0x90 JUMP JUMPDEST CALLDATASIZE PUSH2 0x90 JUMPI STOP JUMPDEST PUSH1 0x0 DUP1 REVERT JUMPDEST CALLVALUE DUP1 ISZERO PUSH2 0xA1 JUMPI PUSH1 0x0 DUP1 REVERT JUMPDEST POP PUSH2 0xAA PUSH2 0x1E2 JUMP JUMPDEST PUSH1 0x40 MLOAD PUSH2 0xB7 SWAP2 SWAP1 PUSH2 0x982 JUMP JUMPDEST PUSH1 0x40 MLOAD DUP1 SWAP2 SUB SWAP1 RETURN JUMPDEST CALLVALUE DUP1 ISZERO PUSH2 0xCC JUMPI PUSH1 0x0 DUP1 REVERT JUMPDEST POP PUSH2 0xE7 PUSH1 0x4 DUP1 CALLDATASIZE SUB DUP2 ADD SWAP1 PUSH2 0xE2 SWAP2 SWAP1 PUSH2 0x9CE JUMP JUMPDEST PUSH2 0x1E8 JUMP JUMPDEST STOP JUMPDEST CALLVALUE DUP1 ISZERO PUSH2 0xF5 JUMPI PUSH1 0x0 DUP1 REVERT JUMPDEST POP PUSH2 0x110 PUSH1 0x4 DUP1 CALLDATASIZE SUB DUP2 ADD SWAP1 PUSH2 0x10B SWAP2 SWAP1 PUSH2 0x9CE JUMP JUMPDEST PUSH2 0x3AF JUMP JUMPDEST STOP JUMPDEST CALLVALUE DUP1 ISZERO PUSH2 0x11E JUMPI PUSH1 0x0 DUP1 REVERT JUMPDEST POP PUSH2 0x127 PUSH2 0x4BA JUMP JUMPDEST PUSH1 0x40 MLOAD PUSH2 0x134 SWAP2 SWAP1 PUSH2 0x982 JUMP JUMPDEST PUSH1 0x40 MLOAD DUP1 SWAP2 SUB SWAP1 RETURN JUMPDEST PUSH2 0x145 PUSH2 0x4C0 JUMP JUMPDEST STOP JUMPDEST CALLVALUE DUP1 ISZERO PUSH2 0x153 JUMPI PUSH1 0x0 DUP1 REVERT JUMPDEST POP PUSH2 0x15C PUSH2 0x57E JUMP JUMPDEST PUSH1 0x40 MLOAD PUSH2 0x169 SWAP2 SWAP1 PUSH2 0xA3C JUMP JUMPDEST PUSH1 0x40 MLOAD DUP1 SWAP2 SUB SWAP1 RETURN JUMPDEST CALLVALUE DUP1 ISZERO PUSH2 0x17E JUMPI PUSH1 0x0 DUP1 REVERT JUMPDEST POP PUSH2 0x187 PUSH2 0x5A2 JUMP JUMPDEST PUSH1 0x40 MLOAD PUSH2 0x194 SWAP2 SWAP1 PUSH2 0x982 JUMP JUMPDEST PUSH1 0x40 MLOAD DUP1 SWAP2 SUB SWAP1 RETURN JUMPDEST PUSH2 0x1B7 PUSH1 0x4 DUP1 CALLDATASIZE SUB DUP2 ADD SWAP1 PUSH2 0x1B2 SWAP2 SWAP1 PUSH2 0xA8F JUMP JUMPDEST PUSH2 0x5A8 JUMP JUMPDEST STOP JUMPDEST CALLVALUE DUP1 ISZERO PUSH2 0x1C5 JUMPI PUSH1 0x0 DUP1 REVERT JUMPDEST POP PUSH2 0x1E0 PUSH1 0x4 DUP1 CALLDATASIZE SUB DUP2 ADD SWAP1 PUSH2 0x1DB SWAP2 SWAP1 PUSH2 0xABC JUMP JUMPDEST PUSH2 0x7F1 JUMP JUMPDEST STOP JUMPDEST PUSH1 0x3 SLOAD DUP2 JUMP JUMPDEST PUSH1 0x0 DUP1 SLOAD SWAP1 PUSH2 0x100 EXP SWAP1 DIV PUSH20 0xFFFFFFFFFFFFFFFFFFFFFFFFFFFFFFFFFFFFFFFF AND PUSH20 0xFFFFFFFFFFFFFFFFFFFFFFFFFFFFFFFFFFFFFFFF AND CALLER PUSH20 0xFFFFFFFFFFFFFFFFFFFFFFFFFFFFFFFFFFFFFFFF AND EQ PUSH2 0x26D JUMPI PUSH1 0x40 MLOAD PUSH32 0x30CD747100000000000000000000000000000000000000000000000000000000 DUP2 MSTORE PUSH1 0x4 ADD PUSH1 0x40 MLOAD DUP1 SWAP2 SUB SWAP1 REVERT JUMPDEST DUP1 SELFBALANCE LT ISZERO PUSH2 0x2A7 JUMPI PUSH1 0x40 MLOAD PUSH32 0x10162D2D00000000000000000000000000000000000000000000000000000000 DUP2 MSTORE PUSH1 0x4 ADD PUSH1 0x40 MLOAD DUP1 SWAP2 SUB SWAP1 REVERT JUMPDEST PUSH1 0x0 DUP1 PUSH1 0x0 SWAP1 SLOAD SWAP1 PUSH2 0x100 EXP SWAP1 DIV PUSH20 0xFFFFFFFFFFFFFFFFFFFFFFFFFFFFFFFFFFFFFFFF AND PUSH20 0xFFFFFFFFFFFFFFFFFFFFFFFFFFFFFFFFFFFFFFFF AND DUP3 PUSH1 0x40 MLOAD PUSH2 0x2EE SWAP1 PUSH2 0xB2D JUMP JUMPDEST PUSH1 0x0 PUSH1 0x40 MLOAD DUP1 DUP4 SUB DUP2 DUP6 DUP8 GAS CALL SWAP3 POP POP POP RETURNDATASIZE DUP1 PUSH1 0x0 DUP2 EQ PUSH2 0x32B JUMPI PUSH1 0x40 MLOAD SWAP2 POP PUSH1 0x1F NOT PUSH1 0x3F RETURNDATASIZE ADD AND DUP3 ADD PUSH1 0x40 MSTORE RETURNDATASIZE DUP3 MSTORE RETURNDATASIZE PUSH1 0x0 PUSH1 0x20 DUP5 ADD RETURNDATACOPY PUSH2 0x330 JUMP JUMPDEST PUSH1 0x60 SWAP2 POP JUMPDEST POP POP SWAP1 POP DUP1 PUSH2 0x374 JUMPI PUSH1 0x40 MLOAD PUSH32 0x8C379A000000000000000000000000000000000000000000000000000000000 DUP2 MSTORE PUSH1 0x4 ADD PUSH2 0x36B SWAP1 PUSH2 0xB9F JUMP JUMPDEST PUSH1 0x40 MLOAD DUP1 SWAP2 SUB SWAP1 REVERT JUMPDEST PUSH32 0xF1B96DB22D7F3EB7EF19D9DDBC4D63BE139F5D014216D4E42107E10CFD4FF16C DUP3 PUSH1 0x40 MLOAD PUSH2 0x3A3 SWAP2 SWAP1 PUSH2 0x982 JUMP JUMPDEST PUSH1 0x40 MLOAD DUP1 SWAP2 SUB SWAP1 LOG1 POP POP JUMP JUMPDEST PUSH1 0x0 DUP1 SLOAD SWAP1 PUSH2 0x100 EXP SWAP1 DIV PUSH20 0xFFFFFFFFFFFFFFFFFFFFFFFFFFFFFFFFFFFFFFFF AND PUSH20 0xFFFFFFFFFFFFFFFFFFFFFFFFFFFFFFFFFFFFFFFF AND CALLER PUSH20 0xFFFFFFFFFFFFFFFFFFFFFFFFFFFFFFFFFFFFFFFF AND EQ PUSH2 0x434 JUMPI PUSH1 0x40 MLOAD PUSH32 0x30CD747100000000000000000000000000000000000000000000000000000000 DUP2 MSTORE PUSH1 0x4 ADD PUSH1 0x40 MLOAD DUP1 SWAP2 SUB SWAP1 REVERT JUMPDEST PUSH2 0x3E8 DUP2 GT ISZERO PUSH2 0x479 JUMPI PUSH1 0x40 MLOAD PUSH32 0x8C379A000000000000000000000000000000000000000000000000000000000 DUP2 MSTORE PUSH1 0x4 ADD PUSH2 0x470 SWAP1 PUSH2 0xC0B JUMP JUMPDEST PUSH1 0x40 MLOAD DUP1 SWAP2 SUB SWAP1 REVERT JUMPDEST DUP1 PUSH1 0x3 DUP2 SWAP1 SSTORE POP PUSH32 0xAAA88A245626B4C41C5BA2068595112856BFD421E164B6586CBF9408D7167F3 DUP2 PUSH1 0x40 MLOAD PUSH2 0x4AF SWAP2 SWAP1 PUSH2 0x982 JUMP JUMPDEST PUSH1 0x40 MLOAD DUP1 SWAP2 SUB SWAP1 LOG1 POP JUMP JUMPDEST PUSH1 0x2 SLOAD DUP2 JUMP JUMPDEST PUSH1 0x0 DUP1 SLOAD SWAP1 PUSH2 0x100 EXP SWAP1 DIV PUSH20 0xFFFFFFFFFFFFFFFFFFFFFFFFFFFFFFFFFFFFFFFF AND PUSH20 0xFFFFFFFFFFFFFFFFFFFFFFFFFFFFFFFFFFFFFFFF AND CALLER PUSH20 0xFFFFFFFFFFFFFFFFFFFFFFFFFFFFFFFFFFFFFFFF AND EQ PUSH2 0x545 JUMPI PUSH1 0x40 MLOAD PUSH32 0x30CD747100000000000000000000000000000000000000000000000000000000 DUP2 MSTORE PUSH1 0x4 ADD PUSH1 0x40 MLOAD DUP1 SWAP2 SUB SWAP1 REVERT JUMPDEST PUSH32 0x90388E3E271A8F007DD351D51CCAC1674DB355C1CE23FE0005D0721FC8E9B2C6 CALLVALUE PUSH1 0x40 MLOAD PUSH2 0x574 SWAP2 SWAP1 PUSH2 0x982 JUMP JUMPDEST PUSH1 0x40 MLOAD DUP1 SWAP2 SUB SWAP1 LOG1 JUMP JUMPDEST PUSH1 0x0 DUP1 SLOAD SWAP1 PUSH2 0x100 EXP SWAP1 DIV PUSH20 0xFFFFFFFFFFFFFFFFFFFFFFFFFFFFFFFFFFFFFFFF AND DUP2 JUMP JUMPDEST PUSH1 0x1 SLOAD DUP2 JUMP JUMPDEST PUSH1 0x0 CALLVALUE SWAP1 POP PUSH1 0x1 SLOAD DUP2 LT DUP1 PUSH2 0x5BE JUMPI POP PUSH1 0x2 SLOAD DUP2 GT JUMPDEST ISZERO PUSH2 0x5F5 JUMPI PUSH1 0x40 MLOAD PUSH32 0xAA82224900000000000000000000000000000000000000000000000000000000 DUP2 MSTORE PUSH1 0x4 ADD PUSH1 0x40 MLOAD DUP1 SWAP2 SUB SWAP1 REVERT JUMPDEST PUSH1 0x0 PUSH1 0x1 PUSH2 0x603 PUSH1 0x6 PUSH2 0x904 JUMP JUMPDEST PUSH2 0x60D SWAP2 SWAP1 PUSH2 0xC5A JUMP JUMPDEST SWAP1 POP PUSH1 0x0 PUSH1 0x1 PUSH2 0x61D PUSH1 0x6 PUSH2 0x904 JUMP JUMPDEST PUSH2 0x627 SWAP2 SWAP1 PUSH2 0xC5A JUMP JUMPDEST SWAP1 POP PUSH1 0x0 DUP2 DUP4 PUSH2 0x637 SWAP2 SWAP1 PUSH2 0xC9B JUMP JUMPDEST SWAP1 POP PUSH1 0x0 PUSH1 0x7 DUP3 PUSH1 0xFF AND SUB PUSH2 0x64F JUMPI PUSH1 0x0 SWAP1 POP PUSH2 0x66E JUMP JUMPDEST DUP6 ISZERO PUSH2 0x663 JUMPI PUSH1 0x7 DUP3 PUSH1 0xFF AND GT SWAP1 POP PUSH2 0x66D JUMP JUMPDEST PUSH1 0x7 DUP3 PUSH1 0xFF AND LT SWAP1 POP JUMPDEST JUMPDEST PUSH1 0x0 DUP2 ISZERO PUSH2 0x78E JUMPI PUSH1 0x0 PUSH1 0x3 SLOAD PUSH2 0x4E20 PUSH2 0x688 SWAP2 SWAP1 PUSH2 0xCD0 JUMP JUMPDEST SWAP1 POP PUSH2 0x2710 DUP2 DUP9 PUSH2 0x699 SWAP2 SWAP1 PUSH2 0xD04 JUMP JUMPDEST PUSH2 0x6A3 SWAP2 SWAP1 PUSH2 0xD75 JUMP JUMPDEST SWAP2 POP DUP2 SELFBALANCE LT ISZERO PUSH2 0x6DF JUMPI PUSH1 0x40 MLOAD PUSH32 0x10162D2D00000000000000000000000000000000000000000000000000000000 DUP2 MSTORE PUSH1 0x4 ADD PUSH1 0x40 MLOAD DUP1 SWAP2 SUB SWAP1 REVERT JUMPDEST PUSH1 0x0 CALLER PUSH20 0xFFFFFFFFFFFFFFFFFFFFFFFFFFFFFFFFFFFFFFFF AND DUP4 PUSH1 0x40 MLOAD PUSH2 0x705 SWAP1 PUSH2 0xB2D JUMP JUMPDEST PUSH1 0x0 PUSH1 0x40 MLOAD DUP1 DUP4 SUB DUP2 DUP6 DUP8 GAS CALL SWAP3 POP POP POP RETURNDATASIZE DUP1 PUSH1 0x0 DUP2 EQ PUSH2 0x742 JUMPI PUSH1 0x40 MLOAD SWAP2 POP PUSH1 0x1F NOT PUSH1 0x3F RETURNDATASIZE ADD AND DUP3 ADD PUSH1 0x40 MSTORE RETURNDATASIZE DUP3 MSTORE RETURNDATASIZE PUSH1 0x0 PUSH1 0x20 DUP5 ADD RETURNDATACOPY PUSH2 0x747 JUMP JUMPDEST PUSH1 0x60 SWAP2 POP JUMPDEST POP POP SWAP1 POP DUP1 PUSH2 0x78B JUMPI PUSH1 0x40 MLOAD PUSH32 0x8C379A000000000000000000000000000000000000000000000000000000000 DUP2 MSTORE PUSH1 0x4 ADD PUSH2 0x782 SWAP1 PUSH2 0xDF2 JUMP JUMPDEST PUSH1 0x40 MLOAD DUP1 SWAP2 SUB SWAP1 REVERT JUMPDEST POP POP JUMPDEST CALLER PUSH20 0xFFFFFFFFFFFFFFFFFFFFFFFFFFFFFFFFFFFFFFFF AND PUSH32 0xF27CBBD9D4F56EAC12A418EC8FC77964021DF0F6EC18E05452CDCA8A3D023F62 DUP8 DUP10 DUP9 DUP9 DUP9 DUP9 DUP9 PUSH1 0x40 MLOAD PUSH2 0x7E0 SWAP8 SWAP7 SWAP6 SWAP5 SWAP4 SWAP3 SWAP2 SWAP1 PUSH2 0xE30 JUMP JUMPDEST PUSH1 0x40 MLOAD DUP1 SWAP2 SUB SWAP1 LOG2 POP POP POP POP POP POP POP JUMP JUMPDEST PUSH1 0x0 DUP1 SLOAD SWAP1 PUSH2 0x100 EXP SWAP1 DIV PUSH20 0xFFFFFFFFFFFFFFFFFFFFFFFFFFFFFFFFFFFFFFFF AND PUSH20 0xFFFFFFFFFFFFFFFFFFFFFFFFFFFFFFFFFFFFFFFF AND CALLER PUSH20 0xFFFFFFFFFFFFFFFFFFFFFFFFFFFFFFFFFFFFFFFF AND EQ PUSH2 0x876 JUMPI PUSH1 0x40 MLOAD PUSH32 0x30CD747100000000000000000000000000000000000000000000000000000000 DUP2 MSTORE PUSH1 0x4 ADD PUSH1 0x40 MLOAD DUP1 SWAP2 SUB SWAP1 REVERT JUMPDEST DUP1 DUP3 GT ISZERO PUSH2 0x8B9 JUMPI PUSH1 0x40 MLOAD PUSH32 0x8C379A000000000000000000000000000000000000000000000000000000000 DUP2 MSTORE PUSH1 0x4 ADD PUSH2 0x8B0 SWAP1 PUSH2 0xEEB JUMP JUMPDEST PUSH1 0x40 MLOAD DUP1 SWAP2 SUB SWAP1 REVERT JUMPDEST DUP2 PUSH1 0x1 DUP2 SWAP1 SSTORE POP DUP1 PUSH1 0x2 DUP2 SWAP1 SSTORE POP PUSH32 0x4D4981437D0211F9E6843EB024D9ADA1FA3A99514D4343D4AECE106DD11524BB DUP3 DUP3 PUSH1 0x40 MLOAD PUSH2 0x8F8 SWAP3 SWAP2 SWAP1 PUSH2 0xF0B JUMP JUMPDEST PUSH1 0x40 MLOAD DUP1 SWAP2 SUB SWAP1 LOG1 POP POP JUMP JUMPDEST PUSH1 0x0 PUSH1 0x4 PUSH1 0x0 DUP2 SLOAD DUP1 SWAP3 SWAP2 SWAP1 PUSH1 0x1 ADD SWAP2 SWAP1 POP SSTORE POP DUP2 PUSH1 0x1 NUMBER PUSH2 0x926 SWAP2 SWAP1 PUSH2 0xCD0 JUMP JUMPDEST BLOCKHASH CALLER ADDRESS PUSH1 0x4 SLOAD PUSH1 0x40 MLOAD PUSH1 0x20 ADD PUSH2 0x93F SWAP5 SWAP4 SWAP3 SWAP2 SWAP1 PUSH2 0xFC8 JUMP JUMPDEST PUSH1 0x40 MLOAD PUSH1 0x20 DUP2 DUP4 SUB SUB DUP2 MSTORE SWAP1 PUSH1 0x40 MSTORE DUP1 MLOAD SWAP1 PUSH1 0x20 ADD KECCAK256 PUSH1 0x0 SHR PUSH2 0x962 SWAP2 SWAP1 PUSH2 0x1016 JUMP JUMPDEST SWAP1 POP SWAP2 SWAP1 POP JUMP JUMPDEST PUSH1 0x0 DUP2 SWAP1 POP SWAP2 SWAP1 POP JUMP JUMPDEST PUSH2 0x97C DUP2 PUSH2 0x969 JUMP JUMPDEST DUP3 MSTORE POP POP JUMP JUMPDEST PUSH1 0x0 PUSH1 0x20 DUP3 ADD SWAP1 POP PUSH2 0x997 PUSH1 0x0 DUP4 ADD DUP5 PUSH2 0x973 JUMP JUMPDEST SWAP3 SWAP2 POP POP JUMP JUMPDEST PUSH1 0x0 DUP1 REVERT JUMPDEST PUSH2 0x9AB DUP2 PUSH2 0x969 JUMP JUMPDEST DUP2 EQ PUSH2 0x9B6 JUMPI PUSH1 0x0 DUP1 REVERT JUMPDEST POP JUMP JUMPDEST PUSH1 0x0 DUP2 CALLDATALOAD SWAP1 POP PUSH2 0x9C8 DUP2 PUSH2 0x9A2 JUMP JUMPDEST SWAP3 SWAP2 POP POP JUMP JUMPDEST PUSH1 0x0 PUSH1 0x20 DUP3 DUP5 SUB SLT ISZERO PUSH2 0x9E4 JUMPI PUSH2 0x9E3 PUSH2 0x99D JUMP JUMPDEST JUMPDEST PUSH1 0x0 PUSH2 0x9F2 DUP5 DUP3 DUP6 ADD PUSH2 0x9B9 JUMP JUMPDEST SWAP2 POP POP SWAP3 SWAP2 POP POP JUMP JUMPDEST PUSH1 0x0 PUSH20 0xFFFFFFFFFFFFFFFFFFFFFFFFFFFFFFFFFFFFFFFF DUP3 AND SWAP1 POP SWAP2 SWAP1 POP JUMP JUMPDEST PUSH1 0x0 PUSH2 0xA26 DUP3 PUSH2 0x9FB JUMP JUMPDEST SWAP1 POP SWAP2 SWAP1 POP JUMP JUMPDEST PUSH2 0xA36 DUP2 PUSH2 0xA1B JUMP JUMPDEST DUP3 MSTORE POP POP JUMP JUMPDEST PUSH1 0x0 PUSH1 0x20 DUP3 ADD SWAP1 POP PUSH2 0xA51 PUSH1 0x0 DUP4 ADD DUP5 PUSH2 0xA2D JUMP JUMPDEST SWAP3 SWAP2 POP POP JUMP JUMPDEST PUSH1 0x0 DUP2 ISZERO ISZERO SWAP1 POP SWAP2 SWAP1 POP JUMP JUMPDEST PUSH2 0xA6C DUP2 PUSH2 0xA57 JUMP JUMPDEST DUP2 EQ PUSH2 0xA77 JUMPI PUSH1 0x0 DUP1 REVERT JUMPDEST POP JUMP JUMPDEST PUSH1 0x0 DUP2 CALLDATALOAD SWAP1 POP PUSH2 0xA89 DUP2 PUSH2 0xA63 JUMP JUMPDEST SWAP3 SWAP2 POP POP JUMP JUMPDEST PUSH1 0x0 PUSH1 0x20 DUP3 DUP5 SUB SLT ISZERO PUSH2 0xAA5 JUMPI PUSH2 0xAA4 PUSH2 0x99D JUMP JUMPDEST JUMPDEST PUSH1 0x0 PUSH2 0xAB3 DUP5 DUP3 DUP6 ADD PUSH2 0xA7A JUMP JUMPDEST SWAP2 POP POP SWAP3 SWAP2 POP POP JUMP JUMPDEST PUSH1 0x0 DUP1 PUSH1 0x40 DUP4 DUP6 SUB SLT ISZERO PUSH2 0xAD3 JUMPI PUSH2 0xAD2 PUSH2 0x99D JUMP JUMPDEST JUMPDEST PUSH1 0x0 PUSH2 0xAE1 DUP6 DUP3 DUP7 ADD PUSH2 0x9B9 JUMP JUMPDEST SWAP3 POP POP PUSH1 0x20 PUSH2 0xAF2 DUP6 DUP3 DUP7 ADD PUSH2 0x9B9 JUMP JUMPDEST SWAP2 POP POP SWAP3 POP SWAP3 SWAP1 POP JUMP JUMPDEST PUSH1 0x0 DUP2 SWAP1 POP SWAP3 SWAP2 POP POP JUMP JUMPDEST POP JUMP JUMPDEST PUSH1 0x0 PUSH2 0xB17 PUSH1 0x0 DUP4 PUSH2 0xAFC JUMP JUMPDEST SWAP2 POP PUSH2 0xB22 DUP3 PUSH2 0xB07 JUMP JUMPDEST PUSH1 0x0 DUP3 ADD SWAP1 POP SWAP2 SWAP1 POP JUMP JUMPDEST PUSH1 0x0 PUSH2 0xB38 DUP3 PUSH2 0xB0A JUMP JUMPDEST SWAP2 POP DUP2 SWAP1 POP SWAP2 SWAP1 POP JUMP JUMPDEST PUSH1 0x0 DUP3 DUP3 MSTORE PUSH1 0x20 DUP3 ADD SWAP1 POP SWAP3 SWAP2 POP POP JUMP JUMPDEST PUSH32 0x7769746864726177206661696C65640000000000000000000000000000000000 PUSH1 0x0 DUP3 ADD MSTORE POP JUMP JUMPDEST PUSH1 0x0 PUSH2 0xB89 PUSH1 0xF DUP4 PUSH2 0xB42 JUMP JUMPDEST SWAP2 POP PUSH2 0xB94 DUP3 PUSH2 0xB53 JUMP JUMPDEST PUSH1 0x20 DUP3 ADD SWAP1 POP SWAP2 SWAP1 POP JUMP JUMPDEST PUSH1 0x0 PUSH1 0x20 DUP3 ADD SWAP1 POP DUP2 DUP2 SUB PUSH1 0x0 DUP4 ADD MSTORE PUSH2 0xBB8 DUP2 PUSH2 0xB7C JUMP JUMPDEST SWAP1 POP SWAP2 SWAP1 POP JUMP JUMPDEST PUSH32 0x6564676520746F6F206869676800000000000000000000000000000000000000 PUSH1 0x0 DUP3 ADD MSTORE POP JUMP JUMPDEST PUSH1 0x0 PUSH2 0xBF5 PUSH1 0xD DUP4 PUSH2 0xB42 JUMP JUMPDEST SWAP2 POP PUSH2 0xC00 DUP3 PUSH2 0xBBF JUMP JUMPDEST PUSH1 0x20 DUP3 ADD SWAP1 POP SWAP2 SWAP1 POP JUMP JUMPDEST PUSH1 0x0 PUSH1 0x20 DUP3 ADD SWAP1 POP DUP2 DUP2 SUB PUSH1 0x0 DUP4 ADD MSTORE PUSH2 0xC24 DUP2 PUSH2 0xBE8 JUMP JUMPDEST SWAP1 POP SWAP2 SWAP1 POP JUMP JUMPDEST PUSH32 0x4E487B7100000000000000000000000000000000000000000000000000000000 PUSH1 0x0 MSTORE PUSH1 0x11 PUSH1 0x4 MSTORE PUSH1 0x24 PUSH1 0x0 REVERT JUMPDEST PUSH1 0x0 PUSH2 0xC65 DUP3 PUSH2 0x969 JUMP JUMPDEST SWAP2 POP PUSH2 0xC70 DUP4 PUSH2 0x969 JUMP JUMPDEST SWAP3 POP DUP3 DUP3 ADD SWAP1 POP DUP1 DUP3 GT ISZERO PUSH2 0xC88 JUMPI PUSH2 0xC87 PUSH2 0xC2B JUMP JUMPDEST JUMPDEST SWAP3 SWAP2 POP POP JUMP JUMPDEST PUSH1 0x0 PUSH1 0xFF DUP3 AND SWAP1 POP SWAP2 SWAP1 POP JUMP JUMPDEST PUSH1 0x0 PUSH2 0xCA6 DUP3 PUSH2 0xC8E JUMP JUMPDEST SWAP2 POP PUSH2 0xCB1 DUP4 PUSH2 0xC8E JUMP JUMPDEST SWAP3 POP DUP3 DUP3 ADD SWAP1 POP PUSH1 0xFF DUP2 GT ISZERO PUSH2 0xCCA JUMPI PUSH2 0xCC9 PUSH2 0xC2B JUMP JUMPDEST JUMPDEST SWAP3 SWAP2 POP POP JUMP JUMPDEST PUSH1 0x0 PUSH2 0xCDB DUP3 PUSH2 0x969 JUMP JUMPDEST SWAP2 POP PUSH2 0xCE6 DUP4 PUSH2 0x969 JUMP JUMPDEST SWAP3 POP DUP3 DUP3 SUB SWAP1 POP DUP2 DUP2 GT ISZERO PUSH2 0xCFE JUMPI PUSH2 0xCFD PUSH2 0xC2B JUMP JUMPDEST JUMPDEST SWAP3 SWAP2 POP POP JUMP JUMPDEST PUSH1 0x0 PUSH2 0xD0F DUP3 PUSH2 0x969 JUMP JUMPDEST SWAP2 POP PUSH2 0xD1A DUP4 PUSH2 0x969 JUMP JUMPDEST SWAP3 POP DUP3 DUP3 MUL PUSH2 0xD28 DUP2 PUSH2 0x969 JUMP JUMPDEST SWAP2 POP DUP3 DUP3 DIV DUP5 EQ DUP4 ISZERO OR PUSH2 0xD3F JUMPI PUSH2 0xD3E PUSH2 0xC2B JUMP JUMPDEST JUMPDEST POP SWAP3 SWAP2 POP POP JUMP JUMPDEST PUSH32 0x4E487B7100000000000000000000000000000000000000000000000000000000 PUSH1 0x0 MSTORE PUSH1 0x12 PUSH1 0x4 MSTORE PUSH1 0x24 PUSH1 0x0 REVERT JUMPDEST PUSH1 0x0 PUSH2 0xD80 DUP3 PUSH2 0x969 JUMP JUMPDEST SWAP2 POP PUSH2 0xD8B DUP4 PUSH2 0x969 JUMP JUMPDEST SWAP3 POP DUP3 PUSH2 0xD9B JUMPI PUSH2 0xD9A PUSH2 0xD46 JUMP JUMPDEST JUMPDEST DUP3 DUP3 DIV SWAP1 POP SWAP3 SWAP2 POP POP JUMP JUMPDEST PUSH32 0x7061796F7574206661696C656400000000000000000000000000000000000000 PUSH1 0x0 DUP3 ADD MSTORE POP JUMP JUMPDEST PUSH1 0x0 PUSH2 0xDDC PUSH1 0xD DUP4 PUSH2 0xB42 JUMP JUMPDEST SWAP2 POP PUSH2 0xDE7 DUP3 PUSH2 0xDA6 JUMP JUMPDEST PUSH1 0x20 DUP3 ADD SWAP1 POP SWAP2 SWAP1 POP JUMP JUMPDEST PUSH1 0x0 PUSH1 0x20 DUP3 ADD SWAP1 POP DUP2 DUP2 SUB PUSH1 0x0 DUP4 ADD MSTORE PUSH2 0xE0B DUP2 PUSH2 0xDCF JUMP JUMPDEST SWAP1 POP SWAP2 SWAP1 POP JUMP JUMPDEST PUSH2 0xE1B DUP2 PUSH2 0xA57 JUMP JUMPDEST DUP3 MSTORE POP POP JUMP JUMPDEST PUSH2 0xE2A DUP2 PUSH2 0xC8E JUMP JUMPDEST DUP3 MSTORE POP POP JUMP JUMPDEST PUSH1 0x0 PUSH1 0xE0 DUP3 ADD SWAP1 POP PUSH2 0xE45 PUSH1 0x0 DUP4 ADD DUP11 PUSH2 0x973 JUMP JUMPDEST PUSH2 0xE52 PUSH1 0x20 DUP4 ADD DUP10 PUSH2 0xE12 JUMP JUMPDEST PUSH2 0xE5F PUSH1 0x40 DUP4 ADD DUP9 PUSH2 0xE21 JUMP JUMPDEST PUSH2 0xE6C PUSH1 0x60 DUP4 ADD DUP8 PUSH2 0xE21 JUMP JUMPDEST PUSH2 0xE79 PUSH1 0x80 DUP4 ADD DUP7 PUSH2 0xE21 JUMP JUMPDEST PUSH2 0xE86 PUSH1 0xA0 DUP4 ADD DUP6 PUSH2 0xE12 JUMP JUMPDEST PUSH2 0xE93 PUSH1 0xC0 DUP4 ADD DUP5 PUSH2 0x973 JUMP JUMPDEST SWAP9 SWAP8 POP POP POP POP POP POP POP POP JUMP JUMPDEST PUSH32 0x6D696E3E6D617800000000000000000000000000000000000000000000000000 PUSH1 0x0 DUP3 ADD MSTORE POP JUMP JUMPDEST PUSH1 0x0 PUSH2 0xED5 PUSH1 0x7 DUP4 PUSH2 0xB42 JUMP JUMPDEST SWAP2 POP PUSH2 0xEE0 DUP3 PUSH2 0xE9F JUMP JUMPDEST PUSH1 0x20 DUP3 ADD SWAP1 POP SWAP2 SWAP1 POP JUMP JUMPDEST PUSH1 0x0 PUSH1 0x20 DUP3 ADD SWAP1 POP DUP2 DUP2 SUB PUSH1 0x0 DUP4 ADD MSTORE PUSH2 0xF04 DUP2 PUSH2 0xEC8 JUMP JUMPDEST SWAP1 POP SWAP2 SWAP1 POP JUMP JUMPDEST PUSH1 0x0 PUSH1 0x40 DUP3 ADD SWAP1 POP PUSH2 0xF20 PUSH1 0x0 DUP4 ADD DUP6 PUSH2 0x973 JUMP JUMPDEST PUSH2 0xF2D PUSH1 0x20 DUP4 ADD DUP5 PUSH2 0x973 JUMP JUMPDEST SWAP4 SWAP3 POP POP POP JUMP JUMPDEST PUSH1 0x0 DUP2 SWAP1 POP SWAP2 SWAP1 POP JUMP JUMPDEST PUSH1 0x0 DUP2 SWAP1 POP SWAP2 SWAP1 POP JUMP JUMPDEST PUSH2 0xF59 PUSH2 0xF54 DUP3 PUSH2 0xF34 JUMP JUMPDEST PUSH2 0xF3E JUMP JUMPDEST DUP3 MSTORE POP POP JUMP JUMPDEST PUSH1 0x0 DUP2 PUSH1 0x60 SHL SWAP1 POP SWAP2 SWAP1 POP JUMP JUMPDEST PUSH1 0x0 PUSH2 0xF77 DUP3 PUSH2 0xF5F JUMP JUMPDEST SWAP1 POP SWAP2 SWAP1 POP JUMP JUMPDEST PUSH1 0x0 PUSH2 0xF89 DUP3 PUSH2 0xF6C JUMP JUMPDEST SWAP1 POP SWAP2 SWAP1 POP JUMP JUMPDEST PUSH2 0xFA1 PUSH2 0xF9C DUP3 PUSH2 0xA1B JUMP JUMPDEST PUSH2 0xF7E JUMP JUMPDEST DUP3 MSTORE POP POP JUMP JUMPDEST PUSH1 0x0 DUP2 SWAP1 POP SWAP2 SWAP1 POP JUMP JUMPDEST PUSH2 0xFC2 PUSH2 0xFBD DUP3 PUSH2 0x969 JUMP JUMPDEST PUSH2 0xFA7 JUMP JUMPDEST DUP3 MSTORE POP POP JUMP JUMPDEST PUSH1 0x0 PUSH2 0xFD4 DUP3 DUP8 PUSH2 0xF48 JUMP JUMPDEST PUSH1 0x20 DUP3 ADD SWAP2 POP PUSH2 0xFE4 DUP3 DUP7 PUSH2 0xF90 JUMP JUMPDEST PUSH1 0x14 DUP3 ADD SWAP2 POP PUSH2 0xFF4 DUP3 DUP6 PUSH2 0xF90 JUMP JUMPDEST PUSH1 0x14 DUP3 ADD SWAP2 POP PUSH2 0x1004 DUP3 DUP5 PUSH2 0xFB1 JUMP JUMPDEST PUSH1 0x20 DUP3 ADD SWAP2 POP DUP2 SWAP1 POP SWAP6 SWAP5 POP POP POP POP POP JUMP JUMPDEST PUSH1 0x0 PUSH2 0x1021 DUP3 PUSH2 0x969 JUMP JUMPDEST SWAP2 POP PUSH2 0x102C DUP4 PUSH2 0x969 JUMP JUMPDEST SWAP3 POP DUP3 PUSH2 0x103C JUMPI PUSH2 0x103B PUSH2 0xD46 JUMP JUMPDEST JUMPDEST DUP3 DUP3 MOD SWAP1 POP SWAP3 SWAP2 POP POP JUMP INVALID LOG2 PUSH5 0x6970667358 0x22 SLT KECCAK256 0xD5 GT SSTORE TLOAD 0xCF 0x2C MSIZE SELFBALANCE SWAP14 0xD7 0xB6 0xE9 0xE0 0x24 DELEGATECALL ISZERO 0xBF 0xDD 0xE0 MSTORE MCOPY 0x2A 0xE5 POP SWAP12 0x2E SWAP12 GAS 0xAE DUP13 0xA7 DUP9 PUSH5 0x736F6C6343 STOP ADDMOD XOR STOP CALLER "},"methodIdentifiers":{"depositTreasury()":"7e916d1b","houseEdgeBps()":"00998421","maxBet()":"2e5b2168","minBet()":"9619367d","owner()":"8da5cb5b","play(bool)":"c23c87d5","setEdge(uint256)":"1eac102e","setLimits(uint256,uint256)":"c4590d3f","withdrawTreasury(uint256)":"11f1fc99"}}}}}