{
  "_format": "hh-sol-artifact-1",
  "contractName": "CoinFlip",
  "sourceName": "contracts/CoinFlip.sol",
  "abi": [
    {
      "inputs": [
        {
          "internalType": "uint256",
          "name": "_min",
          "type": "uint256"
        },
        {
          "internalType": "uint256",
          "name": "_max",
          "type": "uint256"
        },
        {
          "internalType": "uint256",
          "name": "_edgeBps",
          "type": "uint256"
        }
      ],
      "stateMutability": "nonpayable",
      "type": "constructor"
    },
    {
      "inputs": [],
      "name": "InsufficientTreasury",
      "type": "error"
    },
    {
      "inputs": [],
      "name": "InvalidBet",
      "type": "error"
    },
    {
      "inputs": [],
      "name": "NotOwner",
      "type": "error"
    },
    {
      "anonymous": false,
      "inputs": [
        {
          "indexed": false,
          "internalType": "uint256",
          "name": "bps",
          "type": "uint256"
        }
      ],
      "name": "EdgeUpdated",
      "type": "event"
    },
    {
      "anonymous": false,
      "inputs": [
        {
          "indexed": true,
          "internalType": "address",
          "name": "player",
          "type": "address"
        },
        {
          "indexed": false,
          "internalType": "uint256",
          "name": "bet",
          "type": "uint256"
        },
        {
          "indexed": false,
          "internalType": "bool",
          "name": "choiceHeads",
          "type": "bool"
        },
        {
          "indexed": false,
          "internalType": "bool",
          "name": "win",
          "type": "bool"
        },
        {
          "indexed": false,
          "internalType": "uint256",
          "name": "payout",
          "type": "uint256"
        },
        {
          "indexed": false,
          "internalType": "uint256",
          "name": "result",
          "type": "uint256"
        }
      ],
      "name": "Flip",
      "type": "event"
    },
    {
      "anonymous": false,
      "inputs": [
        {
          "indexed": false,
          "internalType": "uint256",
          "name": "minBet",
          "type": "uint256"
        },
        {
          "indexed": false,
          "internalType": "uint256",
          "name": "maxBet",
          "type": "uint256"
        }
      ],
      "name": "LimitsUpdated",
      "type": "event"
    },
    {
      "anonymous": false,
      "inputs": [
        {
          "indexed": false,
          "internalType": "uint256",
          "name": "amount",
          "type": "uint256"
        }
      ],
      "name": "TreasuryDeposit",
      "type": "event"
    },
    {
      "anonymous": false,
      "inputs": [
        {
          "indexed": false,
          "internalType": "uint256",
          "name": "amount",
          "type": "uint256"
        }
      ],
      "name": "TreasuryWithdraw",
      "type": "event"
    },
    {
      "inputs": [],
      "name": "depositTreasury",
      "outputs": [],
      "stateMutability": "payable",
      "type": "function"
    },
    {
      "inputs": [],
      "name": "houseEdgeBps",
      "outputs": [
        {
          "internalType": "uint256",
          "name": "",
          "type": "uint256"
        }
      ],
      "stateMutability": "view",
      "type": "function"
    },
    {
      "inputs": [],
      "name": "maxBet",
      "outputs": [
        {
          "internalType": "uint256",
          "name": "",
          "type": "uint256"
        }
      ],
      "stateMutability": "view",
      "type": "function"
    },
    {
      "inputs": [],
      "name": "minBet",
      "outputs": [
        {
          "internalType": "uint256",
          "name": "",
          "type": "uint256"
        }
      ],
      "stateMutability": "view",
      "type": "function"
    },
    {
      "inputs": [],
      "name": "owner",
      "outputs": [
        {
          "internalType": "address",
          "name": "",
          "type": "address"
        }
      ],
      "stateMutability": "view",
      "type": "function"
    },
    {
      "inputs": [
        {
          "internalType": "bool",
          "name": "choiceHeads",
          "type": "bool"
        }
      ],
      "name": "play",
      "outputs": [],
      "stateMutability": "payable",
      "type": "function"
    },
    {
      "inputs": [
        {
          "internalType": "uint256",
          "name": "_edgeBps",
          "type": "uint256"
        }
      ],
      "name": "setEdge",
      "outputs": [],
      "stateMutability": "nonpayable",
      "type": "function"
    },
    {
      "inputs": [
        {
          "internalType": "uint256",
          "name": "_minBet",
          "type": "uint256"
        },
        {
          "internalType": "uint256",
          "name": "_maxBet",
          "type": "uint256"
        }
      ],
      "name": "setLimits",
      "outputs": [],
      "stateMutability": "nonpayable",
      "type": "function"
    },
    {
      "inputs": [
        {
          "internalType": "uint256",
          "name": "amount",
          "type": "uint256"
        }
      ],
      "name": "withdrawTreasury",
      "outputs": [],
      "stateMutability": "nonpayable",
      "type": "function"
    },
    {
      "stateMutability": "payable",
      "type": "receive"
    }
  ],
  "bytecode": "0x60806040523480156200001157600080fd5b50604051620010c6380380620010c68339818101604052810190620000379190620000db565b828282336000806101000a81548173ffffffffffffffffffffffffffffffffffffffff021916908373ffffffffffffffffffffffffffffffffffffffff16021790555082600181905550816002819055508060038190555050505050505062000137565b600080fd5b6000819050919050565b620000b581620000a0565b8114620000c157600080fd5b50565b600081519050620000d581620000aa565b92915050565b600080600060608486031215620000f757620000f66200009b565b5b60006200010786828701620000c4565b93505060206200011a86828701620000c4565b92505060406200012d86828701620000c4565b9150509250925092565b610f7f80620001476000396000f3fe6080604052600436106100895760003560e01c80637e916d1b116100595780637e916d1b1461013d5780638da5cb5b146101475780639619367d14610172578063c23c87d51461019d578063c4590d3f146101b957610090565b80629984211461009557806311f1fc99146100c05780631eac102e146100e95780632e5b21681461011257610090565b3661009057005b600080fd5b3480156100a157600080fd5b506100aa6101e2565b6040516100b79190610925565b60405180910390f35b3480156100cc57600080fd5b506100e760048036038101906100e29190610971565b6101e8565b005b3480156100f557600080fd5b50610110600480360381019061010b9190610971565b6103af565b005b34801561011e57600080fd5b506101276104ba565b6040516101349190610925565b60405180910390f35b6101456104c0565b005b34801561015357600080fd5b5061015c61057e565b60405161016991906109df565b60405180910390f35b34801561017e57600080fd5b506101876105a2565b6040516101949190610925565b60405180910390f35b6101b760048036038101906101b29190610a32565b6105a8565b005b3480156101c557600080fd5b506101e060048036038101906101db9190610a5f565b610794565b005b60035481565b60008054906101000a900473ffffffffffffffffffffffffffffffffffffffff1673ffffffffffffffffffffffffffffffffffffffff163373ffffffffffffffffffffffffffffffffffffffff161461026d576040517f30cd747100000000000000000000000000000000000000000000000000000000815260040160405180910390fd5b804710156102a7576040517f10162d2d00000000000000000000000000000000000000000000000000000000815260040160405180910390fd5b60008060009054906101000a900473ffffffffffffffffffffffffffffffffffffffff1673ffffffffffffffffffffffffffffffffffffffff16826040516102ee90610ad0565b60006040518083038185875af1925050503d806000811461032b576040519150601f19603f3d011682016040523d82523d6000602084013e610330565b606091505b5050905080610374576040517f08c379a000000000000000000000000000000000000000000000000000000000815260040161036b90610b42565b60405180910390fd5b7ff1b96db22d7f3eb7ef19d9ddbc4d63be139f5d014216d4e42107e10cfd4ff16c826040516103a39190610925565b60405180910390a15050565b60008054906101000a900473ffffffffffffffffffffffffffffffffffffffff1673ffffffffffffffffffffffffffffffffffffffff163373ffffffffffffffffffffffffffffffffffffffff1614610434576040517f30cd747100000000000000000000000000000000000000000000000000000000815260040160405180910390fd5b6103e8811115610479576040517f08c379a000000000000000000000000000000000000000000000000000000000815260040161047090610bae565b60405180910390fd5b806003819055507f0aaa88a245626b4c41c5ba2068595112856bfd421e164b6586cbf9408d7167f3816040516104af9190610925565b60405180910390a150565b60025481565b60008054906101000a900473ffffffffffffffffffffffffffffffffffffffff1673ffffffffffffffffffffffffffffffffffffffff163373ffffffffffffffffffffffffffffffffffffffff1614610545576040517f30cd747100000000000000000000000000000000000000000000000000000000815260040160405180910390fd5b7f90388e3e271a8f007dd351d51ccac1674db355c1ce23fe0005d0721fc8e9b2c6346040516105749190610925565b60405180910390a1565b60008054906101000a900473ffffffffffffffffffffffffffffffffffffffff1681565b60015481565b60003490506001548110806105be575060025481115b156105f5576040517faa82224900000000000000000000000000000000000000000000000000000000815260040160405180910390fd5b600061060160026108a7565b90506000600182149050600084151582151514905060008115610736576000600354614e206106309190610bfd565b905061271081876106419190610c31565b61064b9190610ca2565b915081471015610687576040517f10162d2d00000000000000000000000000000000000000000000000000000000815260040160405180910390fd5b60003373ffffffffffffffffffffffffffffffffffffffff16836040516106ad90610ad0565b60006040518083038185875af1925050503d80600081146106ea576040519150601f19603f3d011682016040523d82523d6000602084013e6106ef565b606091505b5050905080610733576040517f08c379a000000000000000000000000000000000000000000000000000000000815260040161072a90610d1f565b60405180910390fd5b50505b3373ffffffffffffffffffffffffffffffffffffffff167f73351d618cacb8a28f163562f37fc5dc1534eb8cf6ece9fc752c0c47ba3358958688858589604051610784959493929190610d4e565b60405180910390a2505050505050565b60008054906101000a900473ffffffffffffffffffffffffffffffffffffffff1673ffffffffffffffffffffffffffffffffffffffff163373ffffffffffffffffffffffffffffffffffffffff1614610819576040517f30cd747100000000000000000000000000000000000000000000000000000000815260040160405180910390fd5b8082111561085c576040517f08c379a000000000000000000000000000000000000000000000000000000000815260040161085390610ded565b60405180910390fd5b81600181905550806002819055507f4d4981437d0211f9e6843eb024d9ada1fa3a99514d4343d4aece106dd11524bb828260405161089b929190610e0d565b60405180910390a15050565b6000600460008154809291906001019190505550816001436108c99190610bfd565b4033306004546040516020016108e29493929190610eca565b6040516020818303038152906040528051906020012060001c6109059190610f18565b9050919050565b6000819050919050565b61091f8161090c565b82525050565b600060208201905061093a6000830184610916565b92915050565b600080fd5b61094e8161090c565b811461095957600080fd5b50565b60008135905061096b81610945565b92915050565b60006020828403121561098757610986610940565b5b60006109958482850161095c565b91505092915050565b600073ffffffffffffffffffffffffffffffffffffffff82169050919050565b60006109c98261099e565b9050919050565b6109d9816109be565b82525050565b60006020820190506109f460008301846109d0565b92915050565b60008115159050919050565b610a0f816109fa565b8114610a1a57600080fd5b50565b600081359050610a2c81610a06565b92915050565b600060208284031215610a4857610a47610940565b5b6000610a5684828501610a1d565b91505092915050565b60008060408385031215610a7657610a75610940565b5b6000610a848582860161095c565b9250506020610a958582860161095c565b9150509250929050565b600081905092915050565b50565b6000610aba600083610a9f565b9150610ac582610aaa565b600082019050919050565b6000610adb82610aad565b9150819050919050565b600082825260208201905092915050565b7f7769746864726177206661696c65640000000000000000000000000000000000600082015250565b6000610b2c600f83610ae5565b9150610b3782610af6565b602082019050919050565b60006020820190508181036000830152610b5b81610b1f565b9050919050565b7f6564676520746f6f206869676800000000000000000000000000000000000000600082015250565b6000610b98600d83610ae5565b9150610ba382610b62565b602082019050919050565b60006020820190508181036000830152610bc781610b8b565b9050919050565b7f4e487b7100000000000000000000000000000000000000000000000000000000600052601160045260246000fd5b6000610c088261090c565b9150610c138361090c565b9250828203905081811115610c2b57610c2a610bce565b5b92915050565b6000610c3c8261090c565b9150610c478361090c565b9250828202610c558161090c565b91508282048414831517610c6c57610c6b610bce565b5b5092915050565b7f4e487b7100000000000000000000000000000000000000000000000000000000600052601260045260246000fd5b6000610cad8261090c565b9150610cb88361090c565b925082610cc857610cc7610c73565b5b828204905092915050565b7f7061796f7574206661696c656400000000000000000000000000000000000000600082015250565b6000610d09600d83610ae5565b9150610d1482610cd3565b602082019050919050565b60006020820190508181036000830152610d3881610cfc565b9050919050565b610d48816109fa565b82525050565b600060a082019050610d636000830188610916565b610d706020830187610d3f565b610d7d6040830186610d3f565b610d8a6060830185610916565b610d976080830184610916565b9695505050505050565b7f6d696e3e6d617800000000000000000000000000000000000000000000000000600082015250565b6000610dd7600783610ae5565b9150610de282610da1565b602082019050919050565b60006020820190508181036000830152610e0681610dca565b9050919050565b6000604082019050610e226000830185610916565b610e2f6020830184610916565b9392505050565b6000819050919050565b6000819050919050565b610e5b610e5682610e36565b610e40565b82525050565b60008160601b9050919050565b6000610e7982610e61565b9050919050565b6000610e8b82610e6e565b9050919050565b610ea3610e9e826109be565b610e80565b82525050565b6000819050919050565b610ec4610ebf8261090c565b610ea9565b82525050565b6000610ed68287610e4a565b602082019150610ee68286610e92565b601482019150610ef68285610e92565b601482019150610f068284610eb3565b60208201915081905095945050505050565b6000610f238261090c565b9150610f2e8361090c565b925082610f3e57610f3d610c73565b5b82820690509291505056fea264697066735822122075944222ce0d22e0b7ef632e3ce8f5b84720cbe5a268630261216fa2d5b547b964736f6c63430008180033",
  "linkReferences": {},
  "deployedLinkReferences": {}
}