{
  "_format": "hh-sol-artifact-1",
  "contractName": "DiceHighLow",
  "sourceName": "contracts/DiceHighLow.sol",
  "abi": [
    {
      "inputs": [
        {
          "internalType": "uint256",
          "name": "_min",
          "type": "uint256"
        },
        {
          "internalType": "uint256",
          "name": "_max",
          "type": "uint256"
        },
        {
          "internalType": "uint256",
          "name": "_edgeBps",
          "type": "uint256"
        }
      ],
      "stateMutability": "nonpayable",
      "type": "constructor"
    },
    {
      "inputs": [],
      "name": "InsufficientTreasury",
      "type": "error"
    },
    {
      "inputs": [],
      "name": "InvalidBet",
      "type": "error"
    },
    {
      "inputs": [],
      "name": "NotOwner",
      "type": "error"
    },
    {
      "anonymous": false,
      "inputs": [
        {
          "indexed": false,
          "internalType": "uint256",
          "name": "bps",
          "type": "uint256"
        }
      ],
      "name": "EdgeUpdated",
      "type": "event"
    },
    {
      "anonymous": false,
      "inputs": [
        {
          "indexed": false,
          "internalType": "uint256",
          "name": "minBet",
          "type": "uint256"
        },
        {
          "indexed": false,
          "internalType": "uint256",
          "name": "maxBet",
          "type": "uint256"
        }
      ],
      "name": "LimitsUpdated",
      "type": "event"
    },
    {
      "anonymous": false,
      "inputs": [
        {
          "indexed": true,
          "internalType": "address",
          "name": "player",
          "type": "address"
        },
        {
          "indexed": false,
          "internalType": "uint256",
          "name": "bet",
          "type": "uint256"
        },
        {
          "indexed": false,
          "internalType": "bool",
          "name": "pickHigh",
          "type": "bool"
        },
        {
          "indexed": false,
          "internalType": "uint8",
          "name": "d1",
          "type": "uint8"
        },
        {
          "indexed": false,
          "internalType": "uint8",
          "name": "d2",
          "type": "uint8"
        },
        {
          "indexed": false,
          "internalType": "uint8",
          "name": "total",
          "type": "uint8"
        },
        {
          "indexed": false,
          "internalType": "bool",
          "name": "win",
          "type": "bool"
        },
        {
          "indexed": false,
          "internalType": "uint256",
          "name": "payout",
          "type": "uint256"
        }
      ],
      "name": "Roll",
      "type": "event"
    },
    {
      "anonymous": false,
      "inputs": [
        {
          "indexed": false,
          "internalType": "uint256",
          "name": "amount",
          "type": "uint256"
        }
      ],
      "name": "TreasuryDeposit",
      "type": "event"
    },
    {
      "anonymous": false,
      "inputs": [
        {
          "indexed": false,
          "internalType": "uint256",
          "name": "amount",
          "type": "uint256"
        }
      ],
      "name": "TreasuryWithdraw",
      "type": "event"
    },
    {
      "inputs": [],
      "name": "depositTreasury",
      "outputs": [],
      "stateMutability": "payable",
      "type": "function"
    },
    {
      "inputs": [],
      "name": "houseEdgeBps",
      "outputs": [
        {
          "internalType": "uint256",
          "name": "",
          "type": "uint256"
        }
      ],
      "stateMutability": "view",
      "type": "function"
    },
    {
      "inputs": [],
      "name": "maxBet",
      "outputs": [
        {
          "internalType": "uint256",
          "name": "",
          "type": "uint256"
        }
      ],
      "stateMutability": "view",
      "type": "function"
    },
    {
      "inputs": [],
      "name": "minBet",
      "outputs": [
        {
          "internalType": "uint256",
          "name": "",
          "type": "uint256"
        }
      ],
      "stateMutability": "view",
      "type": "function"
    },
    {
      "inputs": [],
      "name": "owner",
      "outputs": [
        {
          "internalType": "address",
          "name": "",
          "type": "address"
        }
      ],
      "stateMutability": "view",
      "type": "function"
    },
    {
      "inputs": [
        {
          "internalType": "bool",
          "name": "pickHigh",
          "type": "bool"
        }
      ],
      "name": "play",
      "outputs": [],
      "stateMutability": "payable",
      "type": "function"
    },
    {
      "inputs": [
        {
          "internalType": "uint256",
          "name": "_edgeBps",
          "type": "uint256"
        }
      ],
      "name": "setEdge",
      "outputs": [],
      "stateMutability": "nonpayable",
      "type": "function"
    },
    {
      "inputs": [
        {
          "internalType": "uint256",
          "name": "_minBet",
          "type": "uint256"
        },
        {
          "internalType": "uint256",
          "name": "_maxBet",
          "type": "uint256"
        }
      ],
      "name": "setLimits",
      "outputs": [],
      "stateMutability": "nonpayable",
      "type": "function"
    },
    {
      "inputs": [
        {
          "internalType": "uint256",
          "name": "amount",
          "type": "uint256"
        }
      ],
      "name": "withdrawTreasury",
      "outputs": [],
      "stateMutability": "nonpayable",
      "type": "function"
    },
    {
      "stateMutability": "payable",
      "type": "receive"
    }
  ],
  "bytecode": "0x60806040523480156200001157600080fd5b50604051620011c4380380620011c48339818101604052810190620000379190620000db565b828282336000806101000a81548173ffffffffffffffffffffffffffffffffffffffff021916908373ffffffffffffffffffffffffffffffffffffffff16021790555082600181905550816002819055508060038190555050505050505062000137565b600080fd5b6000819050919050565b620000b581620000a0565b8114620000c157600080fd5b50565b600081519050620000d581620000aa565b92915050565b600080600060608486031215620000f757620000f66200009b565b5b60006200010786828701620000c4565b93505060206200011a86828701620000c4565b92505060406200012d86828701620000c4565b9150509250925092565b61107d80620001476000396000f3fe6080604052600436106100895760003560e01c80637e916d1b116100595780637e916d1b1461013d5780638da5cb5b146101475780639619367d14610172578063c23c87d51461019d578063c4590d3f146101b957610090565b80629984211461009557806311f1fc99146100c05780631eac102e146100e95780632e5b21681461011257610090565b3661009057005b600080fd5b3480156100a157600080fd5b506100aa6101e2565b6040516100b79190610982565b60405180910390f35b3480156100cc57600080fd5b506100e760048036038101906100e291906109ce565b6101e8565b005b3480156100f557600080fd5b50610110600480360381019061010b91906109ce565b6103af565b005b34801561011e57600080fd5b506101276104ba565b6040516101349190610982565b60405180910390f35b6101456104c0565b005b34801561015357600080fd5b5061015c61057e565b6040516101699190610a3c565b60405180910390f35b34801561017e57600080fd5b506101876105a2565b6040516101949190610982565b60405180910390f35b6101b760048036038101906101b29190610a8f565b6105a8565b005b3480156101c557600080fd5b506101e060048036038101906101db9190610abc565b6107f1565b005b60035481565b60008054906101000a900473ffffffffffffffffffffffffffffffffffffffff1673ffffffffffffffffffffffffffffffffffffffff163373ffffffffffffffffffffffffffffffffffffffff161461026d576040517f30cd747100000000000000000000000000000000000000000000000000000000815260040160405180910390fd5b804710156102a7576040517f10162d2d00000000000000000000000000000000000000000000000000000000815260040160405180910390fd5b60008060009054906101000a900473ffffffffffffffffffffffffffffffffffffffff1673ffffffffffffffffffffffffffffffffffffffff16826040516102ee90610b2d565b60006040518083038185875af1925050503d806000811461032b576040519150601f19603f3d011682016040523d82523d6000602084013e610330565b606091505b5050905080610374576040517f08c379a000000000000000000000000000000000000000000000000000000000815260040161036b90610b9f565b60405180910390fd5b7ff1b96db22d7f3eb7ef19d9ddbc4d63be139f5d014216d4e42107e10cfd4ff16c826040516103a39190610982565b60405180910390a15050565b60008054906101000a900473ffffffffffffffffffffffffffffffffffffffff1673ffffffffffffffffffffffffffffffffffffffff163373ffffffffffffffffffffffffffffffffffffffff1614610434576040517f30cd747100000000000000000000000000000000000000000000000000000000815260040160405180910390fd5b6103e8811115610479576040517f08c379a000000000000000000000000000000000000000000000000000000000815260040161047090610c0b565b60405180910390fd5b806003819055507f0aaa88a245626b4c41c5ba2068595112856bfd421e164b6586cbf9408d7167f3816040516104af9190610982565b60405180910390a150565b60025481565b60008054906101000a900473ffffffffffffffffffffffffffffffffffffffff1673ffffffffffffffffffffffffffffffffffffffff163373ffffffffffffffffffffffffffffffffffffffff1614610545576040517f30cd747100000000000000000000000000000000000000000000000000000000815260040160405180910390fd5b7f90388e3e271a8f007dd351d51ccac1674db355c1ce23fe0005d0721fc8e9b2c6346040516105749190610982565b60405180910390a1565b60008054906101000a900473ffffffffffffffffffffffffffffffffffffffff1681565b60015481565b60003490506001548110806105be575060025481115b156105f5576040517faa82224900000000000000000000000000000000000000000000000000000000815260040160405180910390fd5b600060016106036006610904565b61060d9190610c5a565b90506000600161061d6006610904565b6106279190610c5a565b9050600081836106379190610c9b565b9050600060078260ff160361064f576000905061066e565b85156106635760078260ff1611905061066d565b60078260ff161090505b5b6000811561078e576000600354614e206106889190610cd0565b905061271081886106999190610d04565b6106a39190610d75565b9150814710156106df576040517f10162d2d00000000000000000000000000000000000000000000000000000000815260040160405180910390fd5b60003373ffffffffffffffffffffffffffffffffffffffff168360405161070590610b2d565b60006040518083038185875af1925050503d8060008114610742576040519150601f19603f3d011682016040523d82523d6000602084013e610747565b606091505b505090508061078b576040517f08c379a000000000000000000000000000000000000000000000000000000000815260040161078290610df2565b60405180910390fd5b50505b3373ffffffffffffffffffffffffffffffffffffffff167ff27cbbd9d4f56eac12a418ec8fc77964021df0f6ec18e05452cdca8a3d023f62878988888888886040516107e09796959493929190610e30565b60405180910390a250505050505050565b60008054906101000a900473ffffffffffffffffffffffffffffffffffffffff1673ffffffffffffffffffffffffffffffffffffffff163373ffffffffffffffffffffffffffffffffffffffff1614610876576040517f30cd747100000000000000000000000000000000000000000000000000000000815260040160405180910390fd5b808211156108b9576040517f08c379a00000000000000000000000000000000000000000000000000000000081526004016108b090610eeb565b60405180910390fd5b81600181905550806002819055507f4d4981437d0211f9e6843eb024d9ada1fa3a99514d4343d4aece106dd11524bb82826040516108f8929190610f0b565b60405180910390a15050565b6000600460008154809291906001019190505550816001436109269190610cd0565b40333060045460405160200161093f9493929190610fc8565b6040516020818303038152906040528051906020012060001c6109629190611016565b9050919050565b6000819050919050565b61097c81610969565b82525050565b60006020820190506109976000830184610973565b92915050565b600080fd5b6109ab81610969565b81146109b657600080fd5b50565b6000813590506109c8816109a2565b92915050565b6000602082840312156109e4576109e361099d565b5b60006109f2848285016109b9565b91505092915050565b600073ffffffffffffffffffffffffffffffffffffffff82169050919050565b6000610a26826109fb565b9050919050565b610a3681610a1b565b82525050565b6000602082019050610a516000830184610a2d565b92915050565b60008115159050919050565b610a6c81610a57565b8114610a7757600080fd5b50565b600081359050610a8981610a63565b92915050565b600060208284031215610aa557610aa461099d565b5b6000610ab384828501610a7a565b91505092915050565b60008060408385031215610ad357610ad261099d565b5b6000610ae1858286016109b9565b9250506020610af2858286016109b9565b9150509250929050565b600081905092915050565b50565b6000610b17600083610afc565b9150610b2282610b07565b600082019050919050565b6000610b3882610b0a565b9150819050919050565b600082825260208201905092915050565b7f7769746864726177206661696c65640000000000000000000000000000000000600082015250565b6000610b89600f83610b42565b9150610b9482610b53565b602082019050919050565b60006020820190508181036000830152610bb881610b7c565b9050919050565b7f6564676520746f6f206869676800000000000000000000000000000000000000600082015250565b6000610bf5600d83610b42565b9150610c0082610bbf565b602082019050919050565b60006020820190508181036000830152610c2481610be8565b9050919050565b7f4e487b7100000000000000000000000000000000000000000000000000000000600052601160045260246000fd5b6000610c6582610969565b9150610c7083610969565b9250828201905080821115610c8857610c87610c2b565b5b92915050565b600060ff82169050919050565b6000610ca682610c8e565b9150610cb183610c8e565b9250828201905060ff811115610cca57610cc9610c2b565b5b92915050565b6000610cdb82610969565b9150610ce683610969565b9250828203905081811115610cfe57610cfd610c2b565b5b92915050565b6000610d0f82610969565b9150610d1a83610969565b9250828202610d2881610969565b91508282048414831517610d3f57610d3e610c2b565b5b5092915050565b7f4e487b7100000000000000000000000000000000000000000000000000000000600052601260045260246000fd5b6000610d8082610969565b9150610d8b83610969565b925082610d9b57610d9a610d46565b5b828204905092915050565b7f7061796f7574206661696c656400000000000000000000000000000000000000600082015250565b6000610ddc600d83610b42565b9150610de782610da6565b602082019050919050565b60006020820190508181036000830152610e0b81610dcf565b9050919050565b610e1b81610a57565b82525050565b610e2a81610c8e565b82525050565b600060e082019050610e45600083018a610973565b610e526020830189610e12565b610e5f6040830188610e21565b610e6c6060830187610e21565b610e796080830186610e21565b610e8660a0830185610e12565b610e9360c0830184610973565b98975050505050505050565b7f6d696e3e6d617800000000000000000000000000000000000000000000000000600082015250565b6000610ed5600783610b42565b9150610ee082610e9f565b602082019050919050565b60006020820190508181036000830152610f0481610ec8565b9050919050565b6000604082019050610f206000830185610973565b610f2d6020830184610973565b9392505050565b6000819050919050565b6000819050919050565b610f59610f5482610f34565b610f3e565b82525050565b60008160601b9050919050565b6000610f7782610f5f565b9050919050565b6000610f8982610f6c565b9050919050565b610fa1610f9c82610a1b565b610f7e565b82525050565b6000819050919050565b610fc2610fbd82610969565b610fa7565b82525050565b6000610fd48287610f48565b602082019150610fe48286610f90565b601482019150610ff48285610f90565b6014820191506110048284610fb1565b60208201915081905095945050505050565b600061102182610969565b915061102c83610969565b92508261103c5761103b610d46565b5b82820690509291505056fea2646970667358221220d511555ccf2c59479dd7b6e9e024f415bfdde0525e2ae5509b2e9b5aae8ca78864736f6c63430008180033",
  "linkReferences": {},
  "deployedLinkReferences": {}
}